:100000000C94B8000C94D5000C94D5000C94D50039
:100010000C9420010C94D5000C94D5000C94D500C0
:100020000C94D5000C94D5000C94D5000C94D500FC
:100030000C94D5000C94D5000C9454080C94D50065
:100040000C94D5000C94D5000C94A0070C945E077A
:100050000C94D5000C94D5000C94D5000C94D500CC
:100060000C94D5000C94D50020200020200054458D
:10007000454B4F002B2D2D2B2D2D2B2D2D2B2D2D8D
:100080002B2D2D2B007C20207C20207C20207C20F0
:10009000207C20207C002B2D2D2B2D2D2B2D2D2B4E
:1000A0002D2D2B2D2D2B00320031005072657373D6
:1000B000206120627574746F6E20746F2073746198
:1000C000727420616761696E0047414D45204F564B
:1000D0004552003128677265656E20706C617965E4
:1000E000722900322872656420706C61796572290A
:1000F0000057696E20706C617965722069733A00EF
:1001000043757272656E7420706C617965723A2005
:1001100000596F7572206E616D6520697320204AE9
:1001200049414E554F2050414E20616E64207374FA
:100130007564656E74206E756D62657220697320DA
:100140003436313434343433005445454B4F001B7E
:100150005B3F32356C001B5B25646D001B5B324AD4
:10016000001B5B306D001B5B25643B256448000071
:1001700011241FBECFEFD8E0DEBFCDBF11E0A0E05D
:10018000B1E0E0EDF7E102C005900D92AE31B107AC
:10019000D9F722E0AEE1B1E001C01D92AE38B2075E
:1001A000E1F70E949A060C94E60B0C940000E8E636
:1001B000F0E08081826080838BB382608BBBECE651
:1001C000F0E080818F60808310922E0180E00DC06E
:1001D000E82FF0E0EE0FFF1FEE0FFF1FE25EFE4F75
:1001E00010821182128213828F5F843088F3089507
:1001F00080912E01181614F580912F016FB7F89495
:1002000091E009C0F901E15DFE4F4081F901E25D35
:10021000FE4F40839F5F292F30E040912E01042E36
:10022000000C550B241735076CF390912E0191505B
:1002300090932E0166231CF4789408958FEF08950F
:100240001F920F920FB60F921124CF92DF92EF926E
:10025000FF920F931F932F933F934F935F936F934F
:100260007F938F939F93AF93BF93CF93DF93EF933E
:10027000FF93D6B1DF700E9444086B017C01C0E09F
:1002800066C00C2F10E08D2F90E00C2E02C09595CB
:1002900087950A94E2F79C012170332780FF3CC0C8
:1002A0008091330190E00C2E02C0959587950A94B9
:1002B000E2F780FD31C080912E018430FCF4F8011A
:1002C000EE0FFF1FEE0FFF1FE25EFE4F8081918158
:1002D000A281B3814E96A11DB11DC816D906EA06AA
:1002E000FB0660F0E0912E0181E08E0F80932E01DD
:1002F0000E2E000CFF0BE15DFE4FC0830E944408F0
:10030000000F111F000F111FF801E25EFE4F608306
:100310007183828393831AC0232BC1F480913301AC
:1003200090E0002E02C0959587950A94E2F780FF31
:100330000DC00E944408000F111F000F111FF8018B
:10034000E25EFE4F6083718382839383CF5FC4300C
:1003500008F497CFD0933301FF91EF91DF91CF91C4
:10036000BF91AF919F918F917F916F915F914F91CD
:100370003F912F911F910F91FF90EF90DF90CF90C1
:100380000F900FBE0F901F9018951F93CF93DF9380
:100390000E94230881E20E94160810E025C0C12FA8
:1003A000D0E0BE01660F771F6B5F7F4F8DE290E05C
:1003B0000E94F30786E990E09F938F930E94F808CC
:1003C000BE016D5F7F4F660F771F8DE290E00E9448
:1003D000F30785E890E09F938F930E94F8081F5FD2
:1003E0000F900F900F900F901530C8F26FE070E0F3
:1003F0008DE290E00E94F30784E790E09F938F9353
:100400000E94F8080E9404080F900F90DF91CF918E
:100410001F91089565E070E08DE290E00E94F3077F
:1004200080E20E9416088EE690E09F938F930E94D0
:10043000F8080F900F900895CF93DF93C82FD62F11
:10044000413041F0423041F0433041F0443041F41A
:100450008FE207C08AE205C089E203C08BE201C0D7
:1004600088E20E94160867E070E06D1B71098C2F0E
:1004700090E09C01220F331F820F931F660F771F9E
:100480008E960E94F3078BE690E09F938F930E94D5
:10049000F8080E9404080F900F90DF91CF91089503
:1004A000CF93DF93C82FD62F842F0E94160867E0C2
:1004B00070E06D1B71098C2F90E09C01220F331F9F
:1004C000820F931F660F771F8E960E94F30788E6B0
:1004D00090E09F938F930E94F8080E9404080F9069
:1004E0000F90DF91CF9108950E94C50130E014C0B4
:1004F000832F90E0FC01EE0FFF1FEE0FFF1FE80FB0
:10050000F91FE15CFE4FE20FF11D10822F5F01C069
:1005100020E0253068F33F5F3530D0F381E08093F1
:1005200058018093620182E08093730180933E01C1
:10053000109261011092370108958530B0F466235E
:10054000B4F06530B4F4082E000C990BFC01EE0FEA
:10055000FF1FEE0FFF1FE80FF91FE15CFE4FE60FD4
:10056000F11D67FDFA958081089580E0089580E08F
:10057000089580E00895CF93DF93809161018823EF
:1005800071F0D0913E01C09173016D2F8C2F0E94AC
:100590009D02482F6D2F8C2F0E941C0207C043E044
:1005A00060913E01809173010E941C029091610153
:1005B00081E0891B80936101DF91CF9108950F93B2
:1005C0001F93CF93DF93082F162FD0913E01C09138
:1005D00073016D2F8C2F0E949D02482F6D2F8C2F41
:1005E0000E941C0280917301800F809373016091BF
:1005F0003E01610F60933E01853014F0109273014B
:100600008091730188231CF484E08093730165302A
:1006100014F010923E0180913E0188231CF484E086
:1006200080933E0180913601882349F04091580122
:1006300060913E01809173010E941C0207C043E05B
:1006400060913E01809173010E941C02DF91CF9165
:100650001F910F91089540E017C0082E000C990BD0
:10066000F901ED59FE4F2081FC01EE0FFF1FEE0F47
:10067000FF1FE80FF91FE15CFE4FE20FF11D27FDA0
:10068000FA9584E080834F5F242F30E0F901E75A28
:10069000FE4F80818F3F09F7089564E070E088E3A2
:1006A00090E00E94F30780915801813041F489EA7B
:1006B00090E09F938F930E94F8080F900F90809185
:1006C0005801823041F487EA90E09F938F930E9413
:1006D000F8080F900F904091580165E084E00E9467
:1006E0001C0208954091580160913E018091730170
:1006F0000E941C0280917301082E000C990B30910E
:100700003E0120915801FC01EE0FFF1FEE0FFF1F6D
:10071000E80FF91FE15CFE4FE30FF11D37FDFA957D
:100720002083213021F482E08093580105C02230DB
:1007300019F481E0809358010E944D030895CF93EE
:1007400080917301082E000C990B20913E01FC0151
:10075000EE0FFF1FEE0FFF1FE80FF91FE15CFE4FCA
:10076000E20FF11D27FDFA95108281E0809336019A
:10077000C0E008C0F901ED59FE4F60814FE20E94D0
:100780005002CF5F2C2F30E0F901E75AFE4F8081F5
:100790008F3F81F7CF91089580E013C0282F30E07C
:1007A000F901E75AFE4F408190917301491308C047
:1007B000F901ED59FE4F208190913E01291729F052
:1007C0008F5F883058F380E0089581E0089520E03D
:1007D0000CC0822F90E0FC01E75AFE4F3FEF3083C0
:1007E000FC01ED59FE4F30832F5F283090F30895C0
:1007F0000F931F93CF93DF930E94E703D0E000E0B5
:100800002AC02D2F30E0F901E85FFE4FC0818091B2
:100810007301C80FF901E050FF4F108180913E0134
:10082000180FC530B8F41123ACF015309CF4612FCB
:100830008C2F0E949D0281110DC0802F002E000C74
:10084000990BFC01E75AFE4FC083FC01ED59FE4FA6
:1008500010830F5FDF5FD830A0F2DF91CF911F913F
:100860000F91089560913E01809173010E949D0255
:1008700090916201913061F4882321F015B81092B3
:100880003501089588E085B981E0809335010895A8
:10089000923051F590913601992359F00E94CC0382
:1008A00080933501882319F088E085B9089515B83B
:1008B000089590915801891314C00E94F803809103
:1008C00059018F3F21F081E08093340103C01092E1
:1008D000340115B880913401882331F088E085B95E
:1008E000089515B8109234010895CF93C0E01AC04E
:1008F000282F082E000C330BFA01ED59FE4F6081B2
:10090000F901EE0FFF1FEE0FFF1FE20FF31FE15C77
:10091000FE4FE60FF11D67FDFA95108248E20E9436
:100920005002CF5F4C2F50E0FA01E75AFE4F808112
:100930008F3FF1F6CF910895CF93DF9390916101AE
:10094000992371F0D0913E01C09173016D2F8C2FCE
:100950000E949D02482F6D2F8C2F0E941C0207C001
:10096000482F60913E01809173010E941C0290917A
:10097000610181E0891B80936101DF91CF9108952E
:1009800080915801813021F0823021F040E003C095
:1009900042E001C041E030E050E021C0832F90E010
:1009A000FC01EE0FFF1FEE0FFF1FE80FF91FE15CC8
:1009B000FE4FE20FF11D808148130BC0852F90E0A0
:1009C000FC01E159FE4F3083FC01E559FE4F2083C5
:1009D0005F5F2F5F01C020E0253000F33F5F3530BF
:1009E000D0F30895FC0120819181291B8281981BFD
:1009F0003381831B291304C0981721F080E00895E8
:100A000080E0089581E0089580913701873060F19A
:100A10000E94C004EFE6F1E080819181891308C053
:100A200090917101891304C0909172018917F1F0BE
:100A3000EBE6F1E080819181891308C090916D010E
:100A4000891304C090916E01891791F08FE691E0AF
:100A50000E94F204882369F08BE691E00E94F20480
:100A6000882339F081E0089580E0089581E00895B9
:100A700081E008950E94D70040E060E076E980E0E0
:100A800090E00E940B070E942C088CE084B988E05B
:100A900085B9789408950E940D086AE070E08AE0B4
:100AA00090E00E94F30789E491E09F938F930E9466
:100AB000F8086CE070E08AE090E00E94F30781E1C2
:100AC00091E09F938F930E94F8080E940A020F9072
:100AD0000F900F900F900E945207882339F0809159
:100AE0008802909189020E94BA0801C08FEF833773
:100AF00031F0833521F00E94F8008F3F61F30895B3
:100B00000E940D080E94740264E070E089E290E0A7
:100B10000E94F30780E091E09F938F930E94F80872
:100B20000E944D030E94E7030E94F8000E945907AB
:100B30000F900F9008958F929F92AF92BF92CF9295
:100B4000DF92EF92FF92CF930E9444084B015C0129
:100B50009BC00E9432040E945207882341F080917A
:100B60008802909189020E94BA08C82F01C0CFEF75
:100B7000C73711F0C73521F461E080E00E94DF0241
:100B8000C13611F0C13421F460E08FEF0E94DF0222
:100B9000C33711F0C33521F46FEF80E00E94DF020C
:100BA000C43611F0C43421F460E081E00E94DF0219
:100BB000C03299F580916201813099F480913501BC
:100BC000882359F10E947203809137018F5F8093CF
:100BD0003701883010F182E0809362011092350174
:100BE0001CC08230D1F480913401882331F00E94FE
:100BF0009F030E942B0310923401809135018823BA
:100C000061F080913601882341F00E9475040E94B2
:100C1000720310923601109235010E94F800C82F1D
:100C2000833021F460E08FEF0E94DF02C23021F4B4
:100C300060E081E00E94DF02C13021F461E080E0E9
:100C40000E94DF02C11104C06FEF80E00E94DF024A
:100C50000E9444086B017C01D501C4018C509E4F59
:100C6000AF4FBF4FC816D906EA06FB0668F0809161
:100C70003601882329F0809158010E949C0402C00B
:100C80000E94BB02460157010E940405882309F413
:100C900060CFCF91FF90EF90DF90CF90BF90AF905B
:100CA0009F908F9008956DE070E08AE090E00E9440
:100CB000F30781EF90E09F938F930E94F808809153
:100CC00058010F900F90813041F483EE90E09F9394
:100CD0008F930E94F8080F900F90809158018230F6
:100CE00041F483ED90E09F938F930E94F8080F905A
:100CF0000F906EE070E08AE090E00E94F30789ECCC
:100D000090E09F938F930E94F8086FE070E08AE074
:100D100090E00E94F3078BEA90E09F938F930E94EC
:100D2000F8080F900F900F900F900E94F8008F3FDF
:100D3000E1F308950E943A050E944B050E94800548
:100D40000E949B050E945306F9CFCF93C82F8A308B
:100D500019F48DE00E94A5069FB7907802C09923F0
:100D600029F1809175018F3FD1F3F894E0917401DE
:100D700081E08E0F80937401F0E0EA58FE4FC0834B
:100D8000809175018F5F80937501809174018F3F11
:100D900011F410927401E1ECF0E0808180628083B4
:100DA000992339F0789480E090E005C081E090E0EC
:100DB00002C080E090E0CF9108958091870288235F
:100DC000E1F32FB72078F894809175023091870273
:100DD00090E0831B91095AF4E0917502809187029B
:100DE000F0E0E81BF109EA57FD4F80810AC0E0916D
:100DF000750280918702F0E0E81BF109EA58FD4F87
:100E0000808190918702915090938702222309F06C
:100E1000789490E0089510927401109275011092E8
:100E20007502109287021092860240933801DC010D
:100E3000CB01880F991FAA1FBB1F880F991FAA1FDC
:100E4000BB1F9C01AD01220F331F441F551F60E0E3
:100E500074E284EF90E00E947908BA01A9014F5F23
:100E60005F4F6F4F7F4FDB01CA011AF40196A11D3E
:100E7000B11DB595A7959795879501979093C50056
:100E80008093C400E1ECF0E088E180838081806899
:100E90008083E8E8F2E080E191E0938382839183AC
:100EA000808308959091870281E0911101C080E0D4
:100EB0000895109275021092870208951F920F9262
:100EC0000FB60F9211242F938F939F93EF93FF935D
:100ED00080917501882329F1809174012091750119
:100EE00090E0821B91095AF4E091740180917501A0
:100EF000F0E0E81BF109EB58FD4F90810AC0E0914A
:100F0000740180917501F0E0E81BF109EA58FE4F89
:100F10009081809175018150809375019093C600F6
:100F200005C0E1ECF0E080818F7D8083FF91EF913F
:100F30009F918F912F910F900FBE0F901F9018953A
:100F40001F920F920FB60F9211242F933F934F933E
:100F50005F936F937F938F939F93AF93BF93CF9341
:100F6000EF93FF93C091C60080913801882349F028
:100F7000809175018F3F29F060E070E08C2F0E9416
:100F8000A50680918702803120F081E0809386025F
:100F900018C0CD3009F4CAE0E091750281E08E0FEF
:100FA00080937502F0E0EA58FD4FC083809187027C
:100FB0008F5F8093870280917502803111F41092C7
:100FC0007502FF91EF91CF91BF91AF919F918F915A
:100FD0007F916F915F914F913F912F910F900FBE35
:100FE0000F901F9018959F938F937F936F9386E632
:100FF00091E09F938F930E94F8080F900F900F90AD
:101000000F900F900F90089581E691E09F938F933A
:101010000E94F8080F900F9008958CE591E09F933F
:101020008F930E94F8080F900F9008951F928F934E
:1010300086E591E09F938F930E94F8080F900F90A0
:101040000F900F9008958FE491E09F938F930E94EB
:10105000F8080F900F9008951092390110923A01FC
:1010600010923B0110923C0116BC89EF87BD82E0D3
:1010700084BD83E085BDEEE6F0E080818260808300
:1010800085B3827085BB08958FB7282F2078F89498
:101090006091390170913A0180913B0190913C013E
:1010A000222309F0789408951F920F920FB60F92A1
:1010B00011248F939F93AF93BF93809139019091A7
:1010C0003A01A0913B01B0913C010196A11DB11DD7
:1010D0008093390190933A01A0933B01B0933C0176
:1010E000BF91AF919F918F910F900FBE0F901F9066
:1010F0001895052E97FB1EF400940E94900857FD4A
:1011000007D00E94980807FC03D04EF40C94900876
:1011100050954095309521953F4F4F4F5F4F089523
:1011200090958095709561957F4F8F4F9F4F089553
:10113000A1E21A2EAA1BBB1BFD010DC0AA1FBB1FDB
:10114000EE1FFF1FA217B307E407F50720F0A21B4D
:10115000B30BE40BF50B661F771F881F991F1A94BA
:1011600069F760957095809590959B01AC01BD01E4
:10117000CF010895CF93DF93EC012B8120FF33C083
:1011800026FF0AC02F7B2B838E819F8101969F8330
:101190008E838A8190E029C022FF0FC0E881F98107
:1011A0008081082E000C990B009719F420622B8384
:1011B0001AC03196F983E8830EC0EA85FB8509954C
:1011C00097FF09C02B81019611F080E201C080E1F8
:1011D000822B8B8308C02E813F812F5F3F4F3F833F
:1011E0002E83992702C08FEF9FEFDF91CF91089553
:1011F000A0E0B0E0EEEFF8E00C94BD0BAE01495F6B
:101200005F4FDA016D917D91AD0108E812E0F801C0
:1012100082819381DC0113962C9113972860139699
:101220002C930E941E09D8011296ED91FC91139700
:101230002381277F2383E4E00C94D90BABE0B0E05B
:10124000E4E2F9E00C94AF0B6C017B018A01FC0134
:1012500017821682838181FFCCC1CE0101963C01A9
:10126000F6019381F70193FD859193FF81917F01B1
:10127000882309F4BAC1853239F493FD859193FF2F
:1012800081917F01853229F4B60190E00E94150B0F
:10129000E7CF912C212C312CFFE1F315D8F08B32C4
:1012A00079F038F4803279F08332A1F4232D206173
:1012B0001DC08D3261F0803369F4232D216016C08A
:1012C000832D8260382EE32DE4603E2E2AC0F32D5C
:1012D000F8601DC037FC2DC020ED280F2A3040F0EB
:1012E0008E32B9F436FC81C1232D2064322E19C010
:1012F00036FE06C08AE0989E200D1124922E11C061
:10130000EAE02E9E200D1124222EF32DF0623F2EB6
:1013100008C08C3621F4832D8068382E02C08836B0
:1013200041F4F70193FD859193FF81917F01811134
:10133000B3CF982F9F7D9554933028F40C5F1F4FA7
:101340009FE399830DC0833631F0833771F0833585
:1013500009F059C021C0F801808189830E5F1F4FB9
:1013600088248394912C530113C02801F2E04F0E7E
:10137000511CF801A080B18036FE03C0692D70E0D9
:1013800002C06FEF7FEFC5010E940A0B4C01820182
:10139000F32DFF773F2E16C0280122E0420E511C8C
:1013A000F801A080B18036FE03C0692D70E002C054
:1013B0006FEF7FEFC5010E94FF0A4C01F32DF0682B
:1013C0003F2E820133FC1BC0822D90E088169906C7
:1013D000B0F4B60180E290E00E94150B2A94F4CF9D
:1013E000F50137FC859137FE81915F01B60190E0F0
:1013F0000E94150B21102A9421E0821A9108811471
:10140000910471F7E8C0843611F0893641F5F8018E
:1014100037FE07C060817181828193810C5F1F4F0D
:1014200008C060817181072E000C880B990B0E5F3C
:101430001F4FF32DFF763F2E97FF09C090958095A3
:10144000709561957F4F8F4F9F4FF0683F2E2AE038
:1014500030E0A3010E94510B882E861845C08537C5
:1014600031F4232D2F7EB22E2AE030E025C0932DBB
:10147000997FB92E8F36C1F018F4883579F0B5C050
:10148000803719F0883721F0B0C0E92FE061BE2E17
:10149000B4FE0DC0FB2DF460BF2E09C034FE0AC09F
:1014A000292F2660B22E06C028E030E005C020E1DA
:1014B00030E002C020E132E0F801B7FE07C06081F1
:1014C0007181828193810C5F1F4F06C060817181A1
:1014D00080E090E00E5F1F4FA3010E94510B882E09
:1014E0008618FB2DFF773F2E36FE0DC0232D2E7F55
:1014F000A22E891458F434FE0BC032FC09C0832D8F
:101500008E7EA82E05C0B82CA32C03C0B82C01C019
:10151000B92CA4FE0FC0FE01E80DF11D80818033BF
:1015200021F49A2D997EA92E09C0A2FE06C0B3947B
:10153000B39404C08A2D867809F0B394A3FC11C03B
:10154000A0FE06C0B21488F4280C922C9B180EC082
:10155000B21460F4B60180E290E00E94150BB394DF
:10156000F7CFB21418F42B1802C0982C212CA4FE2B
:1015700010C0B60180E390E00E94150BA2FE17C0D8
:10158000A1FC03C088E790E002C088E590E0B601C6
:101590000CC08A2D867859F0A1FE02C08BE201C0F2
:1015A00080E2A7FC8DE2B60190E00E94150B891441
:1015B00038F4B60180E390E00E94150B9A94F7CFBF
:1015C0008A94F301E80DF11D8081B60190E00E943C
:1015D000150B8110F5CF222009F442CEB60180E22E
:1015E00090E00E94150B2A94F6CFF6018681978130
:1015F00002C08FEF9FEF2B96E2E10C94CB0BFC0126
:101600000590615070400110D8F7809590958E0F2D
:101610009F1F0895FC016150704001900110D8F7A0
:10162000809590958E0F9F1F08950F931F93CF93D2
:10163000DF93FB01238121FD03C08FEF9FEF2CC0BF
:1016400022FF16C0468157812481358142175307F6
:1016500044F4A081B1819D012F5F3F4F31832083EE
:101660008C93268137812F5F3F4F3783268314C0A9
:101670008B01EC01FB010084F185E02D0995892B9C
:10168000E1F6D80116968D919C91179701961796C1
:101690009C938E931697CE01DF91CF911F910F915E
:1016A0000895FA01AA27283051F1203181F1E894F8
:1016B0006F936E7F6E5F7F4F8F4F9F4FAF4FB1E045
:1016C0003ED0B4E03CD0670F781F891F9A1FA11D40
:1016D000680F791F8A1F911DA11D6A0F711D811D41
:1016E000911DA11D20D009F468943F912AE0269F06
:1016F00011243019305D3193DEF6CF010895462F65
:101700004770405D4193B3E00FD0C9F7F6CF462F45
:101710004F70405D4A3318F0495D31FD40524193AE
:1017200002D0A9F7EACFB4E0A6959795879577956B
:101730006795BA95C9F700976105710508959B01F2
:10174000AC010A2E06945795479537952795BA957B
:10175000C9F7620F731F841F951FA01D08952F9254
:101760003F924F925F926F927F928F929F92AF9231
:10177000BF92CF92DF92EF92FF920F931F93CF937E
:10178000DF93CDB7DEB7CA1BDB0B0FB6F894DEBF15
:101790000FBECDBF09942A88398848885F846E843B
:1017A0007D848C849B84AA84B984C884DF80EE8085
:1017B000FD800C811B81AA81B981CE0FD11D0FB68E
:1017C000F894DEBF0FBECDBFED010895F894FFCFB2
:1017D000FFFFFF0000010101FF0001FF01FF000109
:0E17E0000000000300000000A506DD0600006A
:00000001FF
